{
  "contractName": "staking",
  "abi": [
    {
      "inputs": [],
      "payable": false,
      "stateMutability": "nonpayable",
      "type": "constructor"
    },
    {
      "anonymous": false,
      "inputs": [
        {
          "indexed": false,
          "internalType": "uint256",
          "name": "id",
          "type": "uint256"
        },
        {
          "indexed": false,
          "internalType": "uint256",
          "name": "amount",
          "type": "uint256"
        },
        {
          "indexed": false,
          "internalType": "address payable",
          "name": "author",
          "type": "address"
        }
      ],
      "name": "StakeCreated",
      "type": "event"
    },
    {
      "constant": true,
      "inputs": [
        {
          "internalType": "address",
          "name": "",
          "type": "address"
        }
      ],
      "name": "stArray",
      "outputs": [
        {
          "internalType": "uint256",
          "name": "",
          "type": "uint256"
        }
      ],
      "payable": false,
      "stateMutability": "view",
      "type": "function"
    },
    {
      "constant": true,
      "inputs": [],
      "name": "stakeCount",
      "outputs": [
        {
          "internalType": "uint256",
          "name": "",
          "type": "uint256"
        }
      ],
      "payable": false,
      "stateMutability": "view",
      "type": "function"
    },
    {
      "constant": true,
      "inputs": [],
      "name": "test",
      "outputs": [
        {
          "internalType": "string",
          "name": "",
          "type": "string"
        }
      ],
      "payable": false,
      "stateMutability": "view",
      "type": "function"
    },
    {
      "constant": true,
      "inputs": [
        {
          "internalType": "uint256",
          "name": "",
          "type": "uint256"
        }
      ],
      "name": "userAddr",
      "outputs": [
        {
          "internalType": "address",
          "name": "",
          "type": "address"
        }
      ],
      "payable": false,
      "stateMutability": "view",
      "type": "function"
    },
    {
      "constant": false,
      "inputs": [
        {
          "internalType": "uint256",
          "name": "_amount",
          "type": "uint256"
        }
      ],
      "name": "createStake",
      "outputs": [],
      "payable": false,
      "stateMutability": "nonpayable",
      "type": "function"
    },
    {
      "constant": true,
      "inputs": [],
      "name": "getCount",
      "outputs": [
        {
          "internalType": "uint256",
          "name": "",
          "type": "uint256"
        }
      ],
      "payable": false,
      "stateMutability": "view",
      "type": "function"
    }
  ],
  "bytecode": "0x608060405234801561001057600080fd5b50600080819055506040518060400160405280600b81526020017f7465737420737472696e6700000000000000000000000000000000000000000081525060019080519060200190610063929190610069565b5061010e565b828054600181600116156101000203166002900490600052602060002090601f016020900481019282601f106100aa57805160ff19168380011785556100d8565b828001600101855582156100d8579182015b828111156100d75782518255916020019190600101906100bc565b5b5090506100e591906100e9565b5090565b61010b91905b808211156101075760008160009055506001016100ef565b5090565b90565b6104748061011d6000396000f3fe608060405234801561001057600080fd5b50600436106100625760003560e01c80631bf6ddae1461006757806383b658bf14610095578063a87d942c14610103578063c4a9e11614610121578063f8a8fd6d1461013f578063fbf0b04e146101c2575b600080fd5b6100936004803603602081101561007d57600080fd5b810190808035906020019092919050505061021a565b005b6100c1600480360360208110156100ab57600080fd5b8101908080359060200190929190505050610347565b604051808273ffffffffffffffffffffffffffffffffffffffff1673ffffffffffffffffffffffffffffffffffffffff16815260200191505060405180910390f35b61010b61037a565b6040518082815260200191505060405180910390f35b610129610383565b6040518082815260200191505060405180910390f35b610147610389565b6040518080602001828103825283818151815260200191508051906020019080838360005b8381101561018757808201518184015260208101905061016c565b50505050905090810190601f1680156101b45780820380516001836020036101000a031916815260200191505b509250505060405180910390f35b610204600480360360208110156101d857600080fd5b81019080803573ffffffffffffffffffffffffffffffffffffffff169060200190929190505050610427565b6040518082815260200191505060405180910390f35b6000811161022757600080fd5b600080815480929190600101919050555080600260003373ffffffffffffffffffffffffffffffffffffffff1673ffffffffffffffffffffffffffffffffffffffff1681526020019081526020016000208190555033600360008054815260200190815260200160002060006101000a81548173ffffffffffffffffffffffffffffffffffffffff021916908373ffffffffffffffffffffffffffffffffffffffff1602179055507f3686e7a549e0485189b566fc9e004303044baa00620dd7e2cde83eba35bd57c56000548233604051808481526020018381526020018273ffffffffffffffffffffffffffffffffffffffff1673ffffffffffffffffffffffffffffffffffffffff168152602001935050505060405180910390a150565b60036020528060005260406000206000915054906101000a900473ffffffffffffffffffffffffffffffffffffffff1681565b60008054905090565b60005481565b60018054600181600116156101000203166002900480601f01602080910402602001604051908101604052809291908181526020018280546001816001161561010002031660029004801561041f5780601f106103f45761010080835404028352916020019161041f565b820191906000526020600020905b81548152906001019060200180831161040257829003601f168201915b505050505081565b6002602052806000526040600020600091509050548156fea265627a7a72315820cb7fb15c7a9dad3c7974073c9003582d254c0516b1c1eccd8980c30ab4b07c2964736f6c63430005100032",
  "source": "pragma solidity ^0.5.16;\r\n\r\ncontract staking {\r\n\r\n    uint public stakeCount;\r\n    string public test;\r\n    mapping(address => uint) public stArray;\r\n    mapping(uint => address) public userAddr;\r\n\r\n    event StakeCreated(\r\n        uint id,\r\n        uint amount,\r\n        address payable author\r\n    );\r\n\r\n    constructor() public {\r\n        stakeCount = 0;\r\n        test = \"test string\";\r\n    }\r\n\r\n    function createStake(uint _amount) public {\r\n        require(_amount > 0);\r\n        stakeCount++;\r\n        stArray[msg.sender]=_amount;\r\n        userAddr[stakeCount]=msg.sender;\r\n        emit StakeCreated(stakeCount, _amount, msg.sender);\r\n    }\r\n\r\n    function getCount() public view returns (uint) {\r\n        return stakeCount;\r\n    }\r\n}",
  "sourcePath": "E:\\Blockchain\\stakingdApp\\src\\contracts\\staking.sol",
  "compiler": {
    "name": "solc",
    "version": "0.5.16+commit.9c3226ce.Emscripten.clang"
  },
  "schemaVersion": "3.4.12",
  "updatedAt": "2023-03-05T11:17:35.147Z",
  "networkType": "ethereum",
  "devdoc": {
    "methods": {}
  },
  "userdoc": {
    "methods": {}
  }
}